:020000040800F2
:1000000000000120A9100008C1030008C303000874
:10001000C5030008C7030008C9030008000000006A
:10002000000000000000000000000000CB030008FA
:10003000CD03000800000000CF030008D103000832
:10004000F1100008F1100008F1100008F11000088C
:10005000F1100008F1100008F1100008F11000087C
:10006000F1100008F1100008F1100008F11000086C
:10007000F1100008F1100008F1100008F11000085C
:10008000F1100008F1100008F1100008F11000084C
:10009000F1100008F1100008F1100008F11000083C
:1000A000F1100008F1100008F1100008F11000082C
:1000B000F1100008F1100008F1100008F11000081C
:1000C000F1100008F1100008F1100008F11000080C
:1000D000F1100008F1100008F1100008F1100008FC
:1000E000F1100008F1100008F1100008F1100008EC
:1000F000F1100008F1100008F1100008F1100008DC
:10010000F1100008F1100008F1100008F1100008CB
:10011000F1100008F1100008F1100008F1100008BB
:10012000F1100008F1100008F1100008F1100008AB
:1001300000000000000000000000000000000000BF
:1001400000000000000000000000000000000000AF
:10015000000000000000000000000000000000009F
:10016000000000000000000000000000000000008F
:10017000000000000000000000000000000000007F
:10018000000000000000000000000000000000006F
:10019000000000000000000000000000000000005F
:1001A000000000000000000000000000000000004F
:1001B000000000000000000000000000000000003F
:1001C000000000000000000000000000000000002F
:1001D000000000000000000000000000000000001F
:0401E0005FF8E0F1F3
:1001E40010B5054C237833B9044B13B10448AFF36D
:1001F40000800123237010BD3C0400200000000097
:100204001C12000808B5034B1BB103490348AFF3A4
:10021400008008BD00000000400400201C120008FB
:100224002DE9F04389B000240494059406940794BE
:10023400264B9A6942F010029A619A6902F0100200
:100244000092009A9A6942F040029A619A6902F017
:1002540040020192019A9A6942F008029A619A69ED
:1002640002F008020292029A9A6942F004029A6128
:100274009B6903F004030393039BDFF85890224621
:100284004FF48061484600F0BFFA114D22464FF406
:100294008061284600F0B8FA4FF48068CDF81080E9
:1002A4000127059706940226079604A9484600F0FC
:1002B4008FF9CDF8108005970694079604A928466F
:1002C40000F086F909B0BDE8F08300BF00100240D9
:1002D400000C01400018014072B6FEE700B591B071
:1002E400002309930B930C930193029303930493B8
:1002F4000593012106914FF48032079208930A91E5
:1003040002230D930E924FF4E0130F9306A800F00E
:1003140097FA80B90F2301930221029100230393DA
:100324004FF480620492059301A800F0C7FC20B941
:1003340011B05DF804FBFFF7CFFFFFF7CDFF00001E
:1003440000B583B000F0C4F8FFF7C8FFFFF768FFFB
:1003540000F042F8064B93E803000090ADF8041057
:1003640040F6B83306226946024800F02EFEF1E753
:10037400341200085804002082B00E4B9A6942F0EF
:1003840001029A619A6902F001020092009ADA6904
:1003940042F08052DA61DB6903F080530193019BE0
:1003A400054A536823F0E06343F00073536002B0DE
:1003B400704700BF0010024000000140FEE7FEE766
:1003C400FEE7FEE7FEE770477047704708B500F0A8
:1003D40091F808BD7047000008B50A480A4B03604D
:1003E4004FF4E133436000238360C36003610C2254
:1003F40042618361C36100F0B9FD00B908BDFFF734
:100404006BFFFBE7580400200038014010B586B0AC
:10041400002302930393049305930268174B9A42B3
:1004240001D006B010BD03F558439A6942F48042E6
:100434009A619A6902F480420092009A9A6942F0A1
:1004440004029A619B6903F004030193019B4FF436
:10045400007302930223039303230593084C02A918
:10046400204600F0B5F84FF4806302930023039311
:10047400049302A9204600F0ABF8D2E7003801400B
:100484000008014010B504460E4B18784FF47A73F7
:10049400B3FBF0F30C4A1068B0FBF3F000F082F801
:1004A40068B90F2C01D901200AE0002221464FF03F
:1004B400FF3000F043F8054B1C60002000E00120F1
:1004C40010BD00BF04000020000000200800002030
:1004D40008B5074A136843F010031360032000F0C3
:1004E4001BF80020FFF7CEFFFFF746FF002008BDF2
:1004F40000200240034A1168034B1B780B4413602D
:10050400704700BF9C04002004000020014B1868C1
:10051400704700BF9C040020074AD36823F4E063BB
:100524001B041B0C000200F4E060034343F0BF63B0
:1005340043F40033D360704700ED00E030B4174B50
:10054400DB68C3F30223C3F10704042C28BF04248B
:100554001D1D062D18D9033B4FF0FF3505FA04F491
:1005640021EA0401994005FA03F322EA030319433B
:1005740000280BDB0901C9B200F1604000F56140BD
:1005840080F8001330BC70470023E5E700F00F004B
:100594000901C9B2024B1954F4E700BF00ED00E0B1
:1005A40014ED00E00138B0F1807F0AD2064B5860A8
:1005B400064AF02182F823100020986007221A606E
:1005C40070470120704700BF10E000E000ED00E03C
:1005D400F0B482B000252C46ABE0854FBB4210D06E
:1005E40007D9844FBB420CD007F58037BB4208D0F3
:1005F40013E0A7F58017BB4203D007F57027BB4271
:1006040007D18B68002B60D0012B59D0426108259B
:1006140003E0A7F58017BB42F3D0FF2E57D88446DA
:10062400FF2E57D8A200DCF800300F27974023EAAA
:10063400070305FA02F21343CCF800304B6813F0B9
:10064400805F75D06C4B9A6942F001029A619B6994
:1006540003F001030193019BA208971C674B53F815
:1006640027C004F003039F000F23BB402CEA030CB4
:10067400634B984234D003F58063984200F0948031
:1006840003F58063984200F0918003F580639842FB
:1006940000F08E8003F58063984200F08B8003F5B0
:1006A400806398421AD006231BE0CD68B5E7CD6875
:1006B4000435B2E7CD680835AFE7CD680C35ACE753
:1006C40002610825A9E70025A7E70425A5E700F1AD
:1006D400040CA5E7A4F108029200A4E7052300E0B6
:1006E4000023BB4043EA0C030232444F47F8223054
:1006F4004B6813F4803F5FD0424A1368334313605E
:100704004B6813F4003F5DD03E4A53683343536053
:100714004B6813F4801F5BD03A4A93683343936069
:100724004B6813F4001F59D0364AD3681E43D66071
:1007340001340B6833FA04F256D00122A24003EAD2
:10074400020632EA0303F3D14B68122B3FF645AF9E
:10075400122B3FF662AF01A757F823F007060008F3
:10076400AF060008B9060008CB0600081F060008FB
:100774001F0600081F0600081F0600081F060008C1
:100784001F0600081F0600081F0600081F060008B1
:100794001F0600081F0600081F0600081F060008A1
:1007A400B3060008BF06000801239AE7022398E76E
:1007B400032396E7042394E7124A136823EA060303
:1007C40013609DE70F4A536823EA060353609FE7CB
:1007D4000C4A936823EA06039360A1E7094AD368A5
:1007E40023EA0606D660A3E702B0F0BC704700BF58
:1007F40000002210000031100010024000000140EF
:1008040000080140000401400AB101617047090475
:100814000161704782B0084B1B68084AA2FB03239E
:100824005B0A00FB03F3019300BF019B5A1E019274
:10083400002BF9D102B0704700000020D34D6210A4
:10084400002800F0F18170B582B00446036813F00B
:10085400010F2CD0AA4B5B6803F00C03042B1DD0B2
:10086400A74B5B6803F00C03082B12D06368B3F545
:10087400803F41D0002B55D103F1804303F504336D
:100884001A6822F480321A601A6822F480221A60EC
:1008940037E09B4B5B6813F4803FE7D0984B1B68B1
:1008A40013F4003F03D06368002B00F0BF8123687A
:1008B40013F0020F75D0924B5B6813F00C0F5FD0EE
:1008C4008F4B5B6803F00C03082B54D02369002B77
:1008D40000F089808B4B01221A60FFF717FE054652
:1008E400874B1B6813F0020F74D1FFF70FFE401BF8
:1008F4000228F5D903209EE1814A136843F480332A
:100904001360636843B3FFF701FE05467C4B1B6825
:1009140013F4003FCBD1FFF7F9FD401B6428F5D950
:10092400032088E1B3F5A02F09D0754B1A6822F48F
:1009340080321A601A6822F480221A60E1E703F117
:100944008043A3F53C331A6842F480221A601A6883
:1009540042F480321A60D4E7FFF7D8FD0546684BAD
:100964001B6813F4003FA2D0FFF7D0FD401B64289E
:10097400F5D903205FE1624B5B6813F4803FA5D196
:100984005F4B1B6813F0020F03D02369012B40F067
:100994004F815B4A136823F0F803616943EAC1039A
:1009A4001360236813F0080F32D0A369002B45D0DD
:1009B400554B01221A60FFF7A9FD0546504B5B6AAF
:1009C40013F0020F21D1FFF7A1FD401B0228F5D936
:1009D400032030E14A4A136823F0F803616943EACB
:1009E400C1031360DDE7474B00221A60FFF78EFD59
:1009F4000546434B1B6813F0020FD2D0FFF786FD68
:100A0400401B0228F5D9032015E10120FFF702FF5E
:100A1400236813F0040F00F09780394BDB6913F05F
:100A2400805F1DD1364BDA6942F08052DA61DB69AE
:100A340003F080530193019B012512E0324B002205
:100A44001A60FFF763FD05462D4B5B6A13F0020F36
:100A5400DED0FFF75BFD401B0228F5D90320EAE056
:100A640000252A4B1B6813F4807F11D0E368012B07
:100A740022D0002B38D103F1804303F504331A6AE2
:100A840022F001021A621A6A22F004021A6218E0C1
:100A94001E4A136843F480731360FFF737FD06465C
:100AA4001A4B1B6813F4807FE0D1FFF72FFD801BE6
:100AB4006428F5D90320BEE0114A136A43F0010308
:100AC4001362E36873B3FFF721FD06460C4B1B6A00
:100AD40013F0020F37D1FFF719FD801B41F2883361
:100AE4009842F3D90320A6E0052B11D0044B1A6ACF
:100AF40022F001021A621A6A22F004021A62E0E782
:100B04000010024000004242800442420070004053
:100B14004D4B1A6A42F004021A621A6A42F0010248
:100B24001A62CEE7FFF7F2FC0646474B1B6A13F046
:100B3400020F08D0FFF7EAFC801B41F28833984289
:100B4400F3D9032077E0E5B9E369002B72D03E4A7C
:100B5400526802F00C02082A56D0022B17D03B4BE5
:100B640000221A60FFF7D2FC0446374B1B6813F0CF
:100B7400007F47D0FFF7CAFC001B0228F5D90320E9
:100B840059E0314AD36923F08053D361DCE72F4B1A
:100B940000221A60FFF7BAFC05462B4B1B6813F0C2
:100BA400007F06D0FFF7B2FC401B0228F5D90320D2
:100BB40041E0236AB3F5803F1AD023494B6823F4FC
:100BC4007413226A606A024313434B601F4B012271
:100BD4001A60FFF79BFC04461B4B1B6813F0007F55
:100BE4000ED1FFF793FC001B0228F5D9032022E065
:100BF400154A536823F40033A1680B435360DCE7C0
:100C0400002018E0002016E0012B16D00E4B5B6884
:100C140003F48031226A914211D103F47013626AA1
:100C240093420ED1002006E001207047012002E02B
:100C3400012000E0002002B070BD0120FBE701208C
:100C4400F9E70120F7E700BF0010024060004242CC
:100C540086B0164B0FCB0DF1180C0CE90F0040F2C7
:100C64000123ADF80430124B5B6803F00C02082A30
:100C740002D0104806B07047C3F38342624412F8AE
:100C8400102C13F4803F0CD0094B5B68C3F3404332
:100C9400634413F8143C074800FB02F0B0FBF3F084
:100CA400E8E7054800FB02F0E4E700BF541200083F
:100CB4000010024000127A0000093D00002800F0F4
:100CC400A08070B50D460446524B1B6803F0070321
:100CD4008B420BD24F4A136823F007030B43136074
:100CE400136803F007038B4240F08D80236813F0F0
:100CF400020F17D013F0040F04D0474A536843F48B
:100D0400E0635360236813F0080F04D0424A536829
:100D140043F460535360404A536823F0F003A168DE
:100D24000B435360236813F0010F31D06368012B28
:100D340020D0022B25D0384A126812F0020F64D05A
:100D440035494A6822F0030213434B60FFF7DEFB88
:100D54000646314B5B6803F00C036268B3EB820F09
:100D640016D0FFF7D3FB801B41F288339842F0D9A9
:100D7400032045E0284A126812F4003FE0D1012024
:100D84003EE0254A126812F0007FD9D1012037E0F5
:100D9400204B1B6803F00703AB420AD91D4A1368B2
:100DA40023F007032B431360136803F00703AB42DC
:100DB4002DD1236813F0040F06D0174A536823F487
:100DC400E063E1680B435360236813F0080F07D016
:100DD400114A536823F46053216943EAC103536001
:100DE400FFF736FF0C4B5B68C3F303130B4AD35C6A
:100DF400D8400B4B18600B4B1868FFF743FB0020DF
:100E040070BD012070470120FAE70120F8E70120B6
:100E1400F6E700BF00200240001002403C12000828
:100E24000000002008000020014B1868704700BF34
:100E34000000002008B5FFF7F7FF044B5B68C3F31D
:100E44000223034AD35CD84008BD00BF001002400F
:100E54004C12000808B5FFF7E7FF044B5B68C3F3C7
:100E6400C223034AD35CD84008BD00BF001002402F
:100E74004C12000810B504460268136923F4405369
:100E8400C1680B43136183680269134342691A43BF
:100E94000168CB6823F4B05323F00C031343CB60F5
:100EA4000268536923F4407381690B4353610268F8
:100EB400124B9A421FD0FFF7BDFF00EB800303EBF8
:100EC400830362689200B3FBF2F20D48A0FB023187
:100ED4004909642303FB11231B013233A0FB0323C1
:100EE4005B0903F0F00202EB011203F00F03216827
:100EF40013448B6010BDFFF7ADFFDEE700380140FF
:100F04001F85EB512DE9F84305460F4616469946D1
:100F1400DDF820802C68246837EA04030CBF012420
:100F24000024B4421FD1B8F1FF3FF3D0B8F1000F51
:100F340005D0FFF7EBFAA0EB09004045EAD92A688F
:100F4400D36823F4D073D3602A68536923F0010370
:100F54005361202385F83D3085F83E30002385F821
:100F64003C30032000E00020BDE8F88358B310B5FE
:100F7400044690F83D300BB3242384F83D302268B6
:100F8400D36823F40053D3602046FFF773FF22682D
:100F9400136923F4904313612268536923F02A03ED
:100FA40053612268D36843F40053D3600020206463
:100FB400202384F83D3084F83E3010BD80F83C3066
:100FC400FFF724FAD8E7012070472DE9F04182B0F9
:100FD4001E4690F83D30DBB2202B54D104460D461A
:100FE4009046002953D0002A53D090F83C30012B6E
:100FF40051D0012380F83C3000230364212380F87E
:101004003D30FFF783FA0746A4F82480A4F826802D
:10101400A368B3F5805F05D04FF00008002384F87F
:101024003C3012E0236913B14FF00008F6E7A846FC
:101034000025F3E738F8023B2268C3F30803536042
:10104400E28C92B2013A92B2E284E38C9BB273B125
:1010540000963B46002280212046FFF753FFE0B96B
:10106400002DE7D015F8012B23685A60E8E70096B5
:101074003B46002240212046FFF744FF78B9202355
:1010840084F83D3000E0022002B0BDE8F081012088
:10109400FAE70120F8E70220F6E70320F4E703204B
:1010A400F2E700000C480D490D4A002302E0D45831
:1010B400C4500433C4188C42F9D30A4A0A4C00239E
:1010C40001E013600432A242FBD3FFF783F900F07E
:1010D4000FF8FFF735F97047000000203C040020AA
:1010E400781200083C040020C4040020FEE700003D
:1010F40070B50D4E0D4D761BB61006D0002455F874
:10110400043B01349847A642F9D1094E094D00F039
:1011140083F8761BB61006D0002455F8043B01343E
:101124009847A642F9D170BD6C1200086C120008F1
:10113400741200086C120008024B13B1024800F04C
:1011440005B87047000000005D1100080023014647
:101154001A46184600F01AB838B5084B084D5B1B00
:101164009C1007D0043B1D44013C55F804399847B2
:10117400002CF9D1BDE8384000F054B878120008CA
:1011840074120008704700BF704700BF2DE9F04794
:10119400DFF880A00646DAF8000098460F4691462C
:1011A400FFF7F0FF1A4B1B68D3F8484124B3656876
:1011B4001F2D26DC5EB96B1C0235DAF80000636073
:1011C40044F82570FFF7E0FF0020BDE8F087012315
:1011D40004EB8501C1F88890D4F88821AB401A4308
:1011E400022EC4F88821C1F80881E4D1D4F88C21F6
:1011F4001343C4F88C31DEE703F5A674C3F8484101
:10120400D5E7DAF80000FFF7BFFF4FF0FF30DCE767
:101214006812000838040020F8B500BFF8BC08BC08
:101224009E467047F8B500BFF8BC08BC9E467047A0
:1012340068656C6C6F000000000000000000000096
:101244000102030406070809000000000102030468
:1012540002030405060708090A0B0C0D0E0F1010F3
:08126400000000001000002052
:08126C003D1100080902000811
:04127400E501000888
:101278000024F4000100000010000000000000003D
:1012880000000000FC02002064030020CC030020C2
:101298000000000000000000000000000000000046
:1012A8000000000000000000000000000000000036
:1012B8000000000000000000000000000000000026
:1012C8000000000000000000000000000000000016
:1012D8000000000000000000000000000000000006
:1012E80000000000000000000000000000000000F6
:1012F80000000000000000000000000000000000E6
:1013080000000000000000000000000000000000D5
:1013180000000000000000000000000000000000C5
:1013280000000000000000000100000000000000B4
:101338000E33CDAB34126DE6ECDE05000B00000079
:101348000000000000000000000000000000000095
:101358000000000000000000000000000000000085
:101368000000000000000000000000000000000075
:101378000000000000000000000000000000000065
:0C16A8000000000000000000A004002072
:04000005080010A936
:00000001FF
